{
  "address": "0xd41c5433aF5a628B22f75a518f585E1229E65150",
  "abi": [
    {
      "inputs": [
        {
          "internalType": "address",
          "name": "vrfCoordinatorV2",
          "type": "address"
        },
        {
          "internalType": "uint256",
          "name": "entranceFee",
          "type": "uint256"
        },
        {
          "internalType": "bytes32",
          "name": "gasLane",
          "type": "bytes32"
        },
        {
          "internalType": "uint64",
          "name": "subscriptionId",
          "type": "uint64"
        },
        {
          "internalType": "uint32",
          "name": "callbackGasLimit",
          "type": "uint32"
        },
        {
          "internalType": "uint256",
          "name": "interval",
          "type": "uint256"
        }
      ],
      "stateMutability": "nonpayable",
      "type": "constructor"
    },
    {
      "inputs": [
        {
          "internalType": "address",
          "name": "have",
          "type": "address"
        },
        {
          "internalType": "address",
          "name": "want",
          "type": "address"
        }
      ],
      "name": "OnlyCoordinatorCanFulfill",
      "type": "error"
    },
    {
      "inputs": [],
      "name": "Raffle__NotEnoughETHEntered",
      "type": "error"
    },
    {
      "inputs": [],
      "name": "Raffle__NotOpen",
      "type": "error"
    },
    {
      "inputs": [],
      "name": "Raffle__TransferFailed",
      "type": "error"
    },
    {
      "inputs": [
        {
          "internalType": "uint256",
          "name": "currentBalance",
          "type": "uint256"
        },
        {
          "internalType": "uint256",
          "name": "numPlayers",
          "type": "uint256"
        },
        {
          "internalType": "uint256",
          "name": "raffleState",
          "type": "uint256"
        }
      ],
      "name": "Raffle__UpkeepNotNeeded",
      "type": "error"
    },
    {
      "anonymous": false,
      "inputs": [
        {
          "indexed": true,
          "internalType": "address",
          "name": "player",
          "type": "address"
        }
      ],
      "name": "RaffleEnter",
      "type": "event"
    },
    {
      "anonymous": false,
      "inputs": [
        {
          "indexed": true,
          "internalType": "uint256",
          "name": "requestId",
          "type": "uint256"
        }
      ],
      "name": "RequestedRaffleWinner",
      "type": "event"
    },
    {
      "anonymous": false,
      "inputs": [
        {
          "indexed": true,
          "internalType": "address",
          "name": "winner",
          "type": "address"
        }
      ],
      "name": "WinnerPicked",
      "type": "event"
    },
    {
      "inputs": [
        {
          "internalType": "bytes",
          "name": "",
          "type": "bytes"
        }
      ],
      "name": "checkUpkeep",
      "outputs": [
        {
          "internalType": "bool",
          "name": "upkeepNeeded",
          "type": "bool"
        },
        {
          "internalType": "bytes",
          "name": "",
          "type": "bytes"
        }
      ],
      "stateMutability": "nonpayable",
      "type": "function"
    },
    {
      "inputs": [],
      "name": "enterRaffle",
      "outputs": [],
      "stateMutability": "payable",
      "type": "function"
    },
    {
      "inputs": [],
      "name": "getEntranceFee",
      "outputs": [
        {
          "internalType": "uint256",
          "name": "",
          "type": "uint256"
        }
      ],
      "stateMutability": "view",
      "type": "function"
    },
    {
      "inputs": [],
      "name": "getInterval",
      "outputs": [
        {
          "internalType": "uint256",
          "name": "",
          "type": "uint256"
        }
      ],
      "stateMutability": "view",
      "type": "function"
    },
    {
      "inputs": [],
      "name": "getLatestTimeStamp",
      "outputs": [
        {
          "internalType": "uint256",
          "name": "",
          "type": "uint256"
        }
      ],
      "stateMutability": "view",
      "type": "function"
    },
    {
      "inputs": [],
      "name": "getNumWords",
      "outputs": [
        {
          "internalType": "uint256",
          "name": "",
          "type": "uint256"
        }
      ],
      "stateMutability": "pure",
      "type": "function"
    },
    {
      "inputs": [],
      "name": "getNumberOfPlayers",
      "outputs": [
        {
          "internalType": "uint256",
          "name": "",
          "type": "uint256"
        }
      ],
      "stateMutability": "view",
      "type": "function"
    },
    {
      "inputs": [
        {
          "internalType": "uint256",
          "name": "index",
          "type": "uint256"
        }
      ],
      "name": "getPlayers",
      "outputs": [
        {
          "internalType": "address",
          "name": "",
          "type": "address"
        }
      ],
      "stateMutability": "view",
      "type": "function"
    },
    {
      "inputs": [],
      "name": "getRaffleState",
      "outputs": [
        {
          "internalType": "enum Raffle.RaffleState",
          "name": "",
          "type": "uint8"
        }
      ],
      "stateMutability": "view",
      "type": "function"
    },
    {
      "inputs": [],
      "name": "getRecentWinner",
      "outputs": [
        {
          "internalType": "address",
          "name": "",
          "type": "address"
        }
      ],
      "stateMutability": "view",
      "type": "function"
    },
    {
      "inputs": [],
      "name": "getRequestConfirmations",
      "outputs": [
        {
          "internalType": "uint256",
          "name": "",
          "type": "uint256"
        }
      ],
      "stateMutability": "pure",
      "type": "function"
    },
    {
      "inputs": [],
      "name": "getSubscriptionId",
      "outputs": [
        {
          "internalType": "uint256",
          "name": "",
          "type": "uint256"
        }
      ],
      "stateMutability": "view",
      "type": "function"
    },
    {
      "inputs": [
        {
          "internalType": "bytes",
          "name": "",
          "type": "bytes"
        }
      ],
      "name": "performUpkeep",
      "outputs": [],
      "stateMutability": "nonpayable",
      "type": "function"
    },
    {
      "inputs": [
        {
          "internalType": "uint256",
          "name": "requestId",
          "type": "uint256"
        },
        {
          "internalType": "uint256[]",
          "name": "randomWords",
          "type": "uint256[]"
        }
      ],
      "name": "rawFulfillRandomWords",
      "outputs": [],
      "stateMutability": "nonpayable",
      "type": "function"
    }
  ],
  "transactionHash": "0x87e5f38ca21f2dd9724e1d42f84ac346baa55fec6bf5c935dddee99f0376c9a9",
  "args": [
    "0x2ca8e0c643bde4c2e08ab1fa0da3401adad7734d",
    "10000000000000000",
    "0x79d3d8832d904592c0bf9818b621522c988bb8b0c05cdc3b15aea1b6e8db0c15",
    "3341",
    "500000",
    "30"
  ],
  "numDeployments": 1,
  "solcInputHash": "d778bf67d4367ff8c2d84c6a4a1feb69",
  "bytecode": "0x6101606040523480156200001257600080fd5b506040516200190038038062001900833981810160405281019062000038919062000294565b858073ffffffffffffffffffffffffffffffffffffffff1660808173ffffffffffffffffffffffffffffffffffffffff1681525050508460a081815250508573ffffffffffffffffffffffffffffffffffffffff1660c08173ffffffffffffffffffffffffffffffffffffffff16815250508360e081815250508267ffffffffffffffff166101008167ffffffffffffffff16815250508163ffffffff166101208163ffffffff16815250506000600160146101000a81548160ff021916908360018111156200010d576200010c62000330565b5b0217905550426002819055508061014081815250505050505050506200035f565b600080fd5b600073ffffffffffffffffffffffffffffffffffffffff82169050919050565b6000620001608262000133565b9050919050565b620001728162000153565b81146200017e57600080fd5b50565b600081519050620001928162000167565b92915050565b6000819050919050565b620001ad8162000198565b8114620001b957600080fd5b50565b600081519050620001cd81620001a2565b92915050565b6000819050919050565b620001e881620001d3565b8114620001f457600080fd5b50565b6000815190506200020881620001dd565b92915050565b600067ffffffffffffffff82169050919050565b6200022d816200020e565b81146200023957600080fd5b50565b6000815190506200024d8162000222565b92915050565b600063ffffffff82169050919050565b6200026e8162000253565b81146200027a57600080fd5b50565b6000815190506200028e8162000263565b92915050565b60008060008060008060c08789031215620002b457620002b36200012e565b5b6000620002c489828a0162000181565b9650506020620002d789828a01620001bc565b9550506040620002ea89828a01620001f7565b9450506060620002fd89828a016200023c565b93505060806200031089828a016200027d565b92505060a06200032389828a01620001bc565b9150509295509295509295565b7f4e487b7100000000000000000000000000000000000000000000000000000000600052602160045260246000fd5b60805160a05160c05160e05161010051610120516101405161152a620003d660003960008181610874015261091d015260006106eb0152600081816106c80152610945015260006106a70152600061066b015260008181610340015261043d01526000818161037d01526103d1015261152a6000f3fe6080604052600436106100dd5760003560e01c8063473f1ddc1161007f5780636e04ff0d116100595780636e04ff0d1461027d57806391ad27b4146102bb578063de3d9fb7146102e6578063fd6673f514610311576100dd565b8063473f1ddc146101fc57806353a2c19a146102275780635f1b0fd814610252576100dd565b80632cfcc539116100bb5780632cfcc53914610161578063320229eb1461016b5780634585e33b14610196578063460e2049146101bf576100dd565b806309bc33a7146100e2578063115cbaf51461010d5780631fe543e314610138575b600080fd5b3480156100ee57600080fd5b506100f761033c565b6040516101049190610cb4565b60405180910390f35b34801561011957600080fd5b50610122610364565b60405161012f9190610d46565b60405180910390f35b34801561014457600080fd5b5061015f600480360381019061015a9190610efa565b61037b565b005b61016961043b565b005b34801561017757600080fd5b506101806105aa565b60405161018d9190610cb4565b60405180910390f35b3480156101a257600080fd5b506101bd60048036038101906101b89190610fb1565b6105b4565b005b3480156101cb57600080fd5b506101e660048036038101906101e19190610ffe565b6107a4565b6040516101f3919061106c565b60405180910390f35b34801561020857600080fd5b506102116107eb565b60405161021e919061106c565b60405180910390f35b34801561023357600080fd5b5061023c610815565b6040516102499190610cb4565b60405180910390f35b34801561025e57600080fd5b50610267610824565b6040516102749190610cb4565b60405180910390f35b34801561028957600080fd5b506102a4600480360381019061029f919061113c565b610831565b6040516102b292919061121f565b60405180910390f35b3480156102c757600080fd5b506102d0610919565b6040516102dd9190610cb4565b60405180910390f35b3480156102f257600080fd5b506102fb610941565b6040516103089190610cb4565b60405180910390f35b34801561031d57600080fd5b50610326610973565b6040516103339190610cb4565b60405180910390f35b60007f0000000000000000000000000000000000000000000000000000000000000000905090565b6000600160149054906101000a900460ff16905090565b7f000000000000000000000000000000000000000000000000000000000000000073ffffffffffffffffffffffffffffffffffffffff163373ffffffffffffffffffffffffffffffffffffffff161461042d57337f00000000000000000000000000000000000000000000000000000000000000006040517f1cf993f400000000000000000000000000000000000000000000000000000000815260040161042492919061124f565b60405180910390fd5b610437828261097f565b5050565b7f0000000000000000000000000000000000000000000000000000000000000000341015610495576040517fbd4e069500000000000000000000000000000000000000000000000000000000815260040160405180910390fd5b600060018111156104a9576104a8610ccf565b5b600160149054906101000a900460ff1660018111156104cb576104ca610ccf565b5b14610502576040517f1425571c00000000000000000000000000000000000000000000000000000000815260040160405180910390fd5b6000339080600181540180825580915050600190039060005260206000200160009091909190916101000a81548173ffffffffffffffffffffffffffffffffffffffff021916908373ffffffffffffffffffffffffffffffffffffffff1602179055503373ffffffffffffffffffffffffffffffffffffffff167f0805e1d667bddb8a95f0f09880cf94f403fb596ce79928d9f29b74203ba284d460405160405180910390a2565b6000600254905090565b60006105ce60405180602001604052806000815250610831565b5090508061063d5747600080549050600160149054906101000a900460ff1660018111156105ff576105fe610ccf565b5b6040517f584327aa00000000000000000000000000000000000000000000000000000000815260040161063493929190611278565b60405180910390fd5b60018060146101000a81548160ff0219169083600181111561066257610661610ccf565b5b021790555060007f000000000000000000000000000000000000000000000000000000000000000073ffffffffffffffffffffffffffffffffffffffff16635d3b1d307f00000000000000000000000000000000000000000000000000000000000000007f000000000000000000000000000000000000000000000000000000000000000060037f000000000000000000000000000000000000000000000000000000000000000060016040518663ffffffff1660e01b815260040161072c959493929190611327565b6020604051808303816000875af115801561074b573d6000803e3d6000fd5b505050506040513d601f19601f8201168201806040525081019061076f919061138f565b9050807fcd6e45c8998311cab7e9d4385596cac867e20a0587194b954fa3a731c93ce78b60405160405180910390a250505050565b60008082815481106107b9576107b86113bc565b5b9060005260206000200160009054906101000a900473ffffffffffffffffffffffffffffffffffffffff169050919050565b6000600160009054906101000a900473ffffffffffffffffffffffffffffffffffffffff16905090565b6000600163ffffffff16905090565b6000600361ffff16905090565b600060606000600160149054906101000a900460ff16600181111561085957610858610ccf565b5b6000600181111561086d5761086c610ccf565b5b14905060007f0000000000000000000000000000000000000000000000000000000000000000600254426108a1919061141a565b119050600080600080549050119050600080471190508380156108c15750825b80156108ca5750815b80156108d35750805b9550856040518060400160405280600281526020017f30780000000000000000000000000000000000000000000000000000000000008152509550955050505050915091565b60007f0000000000000000000000000000000000000000000000000000000000000000905090565b60007f000000000000000000000000000000000000000000000000000000000000000067ffffffffffffffff16905090565b60008080549050905090565b600080805490508260008151811061099a576109996113bc565b5b60200260200101516109ac919061147d565b905060008082815481106109c3576109c26113bc565b5b9060005260206000200160009054906101000a900473ffffffffffffffffffffffffffffffffffffffff16905080600160006101000a81548173ffffffffffffffffffffffffffffffffffffffff021916908373ffffffffffffffffffffffffffffffffffffffff1602179055506000600160146101000a81548160ff02191690836001811115610a5757610a56610ccf565b5b0217905550600067ffffffffffffffff811115610a7757610a76610db7565b5b604051908082528060200260200182016040528015610aa55781602001602082028036833780820191505090505b5060009080519060200190610abb929190610bf4565b50426002819055506000600160009054906101000a900473ffffffffffffffffffffffffffffffffffffffff1673ffffffffffffffffffffffffffffffffffffffff1647604051610b0b906114df565b60006040518083038185875af1925050503d8060008114610b48576040519150601f19603f3d011682016040523d82523d6000602084013e610b4d565b606091505b5050905080610b88576040517fa1d04b3900000000000000000000000000000000000000000000000000000000815260040160405180910390fd5b600160009054906101000a900473ffffffffffffffffffffffffffffffffffffffff1673ffffffffffffffffffffffffffffffffffffffff167f5b690ec4a06fe979403046eaeea5b3ce38524683c3001f662c8b5a829632f7df60405160405180910390a25050505050565b828054828255906000526020600020908101928215610c6d579160200282015b82811115610c6c5782518260006101000a81548173ffffffffffffffffffffffffffffffffffffffff021916908373ffffffffffffffffffffffffffffffffffffffff16021790555091602001919060010190610c14565b5b509050610c7a9190610c7e565b5090565b5b80821115610c97576000816000905550600101610c7f565b5090565b6000819050919050565b610cae81610c9b565b82525050565b6000602082019050610cc96000830184610ca5565b92915050565b7f4e487b7100000000000000000000000000000000000000000000000000000000600052602160045260246000fd5b60028110610d0f57610d0e610ccf565b5b50565b6000819050610d2082610cfe565b919050565b6000610d3082610d12565b9050919050565b610d4081610d25565b82525050565b6000602082019050610d5b6000830184610d37565b92915050565b6000604051905090565b600080fd5b600080fd5b610d7e81610c9b565b8114610d8957600080fd5b50565b600081359050610d9b81610d75565b92915050565b600080fd5b6000601f19601f8301169050919050565b7f4e487b7100000000000000000000000000000000000000000000000000000000600052604160045260246000fd5b610def82610da6565b810181811067ffffffffffffffff82111715610e0e57610e0d610db7565b5b80604052505050565b6000610e21610d61565b9050610e2d8282610de6565b919050565b600067ffffffffffffffff821115610e4d57610e4c610db7565b5b602082029050602081019050919050565b600080fd5b6000610e76610e7184610e32565b610e17565b90508083825260208201905060208402830185811115610e9957610e98610e5e565b5b835b81811015610ec25780610eae8882610d8c565b845260208401935050602081019050610e9b565b5050509392505050565b600082601f830112610ee157610ee0610da1565b5b8135610ef1848260208601610e63565b91505092915050565b60008060408385031215610f1157610f10610d6b565b5b6000610f1f85828601610d8c565b925050602083013567ffffffffffffffff811115610f4057610f3f610d70565b5b610f4c85828601610ecc565b9150509250929050565b600080fd5b60008083601f840112610f7157610f70610da1565b5b8235905067ffffffffffffffff811115610f8e57610f8d610f56565b5b602083019150836001820283011115610faa57610fa9610e5e565b5b9250929050565b60008060208385031215610fc857610fc7610d6b565b5b600083013567ffffffffffffffff811115610fe657610fe5610d70565b5b610ff285828601610f5b565b92509250509250929050565b60006020828403121561101457611013610d6b565b5b600061102284828501610d8c565b91505092915050565b600073ffffffffffffffffffffffffffffffffffffffff82169050919050565b60006110568261102b565b9050919050565b6110668161104b565b82525050565b6000602082019050611081600083018461105d565b92915050565b600080fd5b600067ffffffffffffffff8211156110a7576110a6610db7565b5b6110b082610da6565b9050602081019050919050565b82818337600083830152505050565b60006110df6110da8461108c565b610e17565b9050828152602081018484840111156110fb576110fa611087565b5b6111068482856110bd565b509392505050565b600082601f83011261112357611122610da1565b5b81356111338482602086016110cc565b91505092915050565b60006020828403121561115257611151610d6b565b5b600082013567ffffffffffffffff8111156111705761116f610d70565b5b61117c8482850161110e565b91505092915050565b60008115159050919050565b61119a81611185565b82525050565b600081519050919050565b600082825260208201905092915050565b60005b838110156111da5780820151818401526020810190506111bf565b60008484015250505050565b60006111f1826111a0565b6111fb81856111ab565b935061120b8185602086016111bc565b61121481610da6565b840191505092915050565b60006040820190506112346000830185611191565b818103602083015261124681846111e6565b90509392505050565b6000604082019050611264600083018561105d565b611271602083018461105d565b9392505050565b600060608201905061128d6000830186610ca5565b61129a6020830185610ca5565b6112a76040830184610ca5565b949350505050565b6000819050919050565b6112c2816112af565b82525050565b600067ffffffffffffffff82169050919050565b6112e5816112c8565b82525050565b600061ffff82169050919050565b611302816112eb565b82525050565b600063ffffffff82169050919050565b61132181611308565b82525050565b600060a08201905061133c60008301886112b9565b61134960208301876112dc565b61135660408301866112f9565b6113636060830185611318565b6113706080830184611318565b9695505050505050565b60008151905061138981610d75565b92915050565b6000602082840312156113a5576113a4610d6b565b5b60006113b38482850161137a565b91505092915050565b7f4e487b7100000000000000000000000000000000000000000000000000000000600052603260045260246000fd5b7f4e487b7100000000000000000000000000000000000000000000000000000000600052601160045260246000fd5b600061142582610c9b565b915061143083610c9b565b9250828203905081811115611448576114476113eb565b5b92915050565b7f4e487b7100000000000000000000000000000000000000000000000000000000600052601260045260246000fd5b600061148882610c9b565b915061149383610c9b565b9250826114a3576114a261144e565b5b828206905092915050565b600081905092915050565b50565b60006114c96000836114ae565b91506114d4826114b9565b600082019050919050565b60006114ea826114bc565b915081905091905056fea2646970667358221220f0f0afc2b806eb5161f3bcaf0fd5dc58cf147d6f252deaa33409eaeea59be59b64736f6c63430008110033",
  "devdoc": {
    "author": "Samuel Troy Dominguez",
    "details": "this implements chainlink VRFv2 and Chainlink Keepers ",
    "kind": "dev",
    "methods": {
      "checkUpkeep(bytes)": {
        "details": "this is the function that the chainlink keeper nodes call they look for the  'upkeepNeeded' to return True We create paramaters for the function to check if true, and return the verdict 1. Time interval must have been passed 2. Must be more than 1 player 3. subscription should be funded with Link 4. The lottery should be in an \"open\" state I changed \"bytes calldata\" to \"bytes memory\", noted in case it doesnt work"
      }
    },
    "title": "A sample Raffle Contract ",
    "version": 1
  },
  "userdoc": {
    "kind": "user",
    "methods": {},
    "notice": "this contracrt is for creating an untamperable decentralized smart contract ",
    "version": 1
  },
  "storageLayout": {
    "storage": [
      {
        "astId": 208,
        "contract": "contracts/Raffle.sol:Raffle",
        "label": "s_players",
        "offset": 0,
        "slot": "0",
        "type": "t_array(t_address_payable)dyn_storage"
      },
      {
        "astId": 225,
        "contract": "contracts/Raffle.sol:Raffle",
        "label": "s_recentWinner",
        "offset": 0,
        "slot": "1",
        "type": "t_address"
      },
      {
        "astId": 228,
        "contract": "contracts/Raffle.sol:Raffle",
        "label": "s_raffleState",
        "offset": 20,
        "slot": "1",
        "type": "t_enum(RaffleState)203"
      },
      {
        "astId": 230,
        "contract": "contracts/Raffle.sol:Raffle",
        "label": "s_lastTimeStamp",
        "offset": 0,
        "slot": "2",
        "type": "t_uint256"
      }
    ],
    "types": {
      "t_address": {
        "encoding": "inplace",
        "label": "address",
        "numberOfBytes": "20"
      },
      "t_address_payable": {
        "encoding": "inplace",
        "label": "address payable",
        "numberOfBytes": "20"
      },
      "t_array(t_address_payable)dyn_storage": {
        "base": "t_address_payable",
        "encoding": "dynamic_array",
        "label": "address payable[]",
        "numberOfBytes": "32"
      },
      "t_enum(RaffleState)203": {
        "encoding": "inplace",
        "label": "enum Raffle.RaffleState",
        "numberOfBytes": "1"
      },
      "t_uint256": {
        "encoding": "inplace",
        "label": "uint256",
        "numberOfBytes": "32"
      }
    }
  }
}